{
  "_format": "hh-sol-artifact-1",
  "contractName": "Deals",
  "sourceName": "contracts/Deals.sol",
  "abi": [
    {
      "inputs": [
        {
          "internalType": "uint256",
          "name": "id",
          "type": "uint256"
        }
      ],
      "name": "DealExpired",
      "type": "error"
    },
    {
      "inputs": [
        {
          "internalType": "uint256",
          "name": "id",
          "type": "uint256"
        }
      ],
      "name": "DealNotFound",
      "type": "error"
    },
    {
      "inputs": [],
      "name": "InvalidArguments",
      "type": "error"
    },
    {
      "inputs": [
        {
          "internalType": "uint256",
          "name": "id",
          "type": "uint256"
        }
      ],
      "name": "MaxSupplyReached",
      "type": "error"
    },
    {
      "inputs": [],
      "name": "NotAuthorized",
      "type": "error"
    },
    {
      "anonymous": false,
      "inputs": [
        {
          "indexed": true,
          "internalType": "address",
          "name": "account",
          "type": "address"
        },
        {
          "indexed": true,
          "internalType": "address",
          "name": "operator",
          "type": "address"
        },
        {
          "indexed": false,
          "internalType": "bool",
          "name": "approved",
          "type": "bool"
        }
      ],
      "name": "ApprovalForAll",
      "type": "event"
    },
    {
      "anonymous": false,
      "inputs": [
        {
          "indexed": false,
          "internalType": "uint8",
          "name": "version",
          "type": "uint8"
        }
      ],
      "name": "Initialized",
      "type": "event"
    },
    {
      "anonymous": false,
      "inputs": [
        {
          "indexed": true,
          "internalType": "uint256",
          "name": "id",
          "type": "uint256"
        },
        {
          "indexed": false,
          "internalType": "uint256",
          "name": "maxSupply",
          "type": "uint256"
        },
        {
          "indexed": false,
          "internalType": "uint256",
          "name": "expirationDate",
          "type": "uint256"
        }
      ],
      "name": "NewDeal",
      "type": "event"
    },
    {
      "anonymous": false,
      "inputs": [
        {
          "indexed": true,
          "internalType": "address",
          "name": "operator",
          "type": "address"
        },
        {
          "indexed": true,
          "internalType": "address",
          "name": "from",
          "type": "address"
        },
        {
          "indexed": true,
          "internalType": "address",
          "name": "to",
          "type": "address"
        },
        {
          "indexed": false,
          "internalType": "uint256[]",
          "name": "ids",
          "type": "uint256[]"
        },
        {
          "indexed": false,
          "internalType": "uint256[]",
          "name": "values",
          "type": "uint256[]"
        }
      ],
      "name": "TransferBatch",
      "type": "event"
    },
    {
      "anonymous": false,
      "inputs": [
        {
          "indexed": true,
          "internalType": "address",
          "name": "operator",
          "type": "address"
        },
        {
          "indexed": true,
          "internalType": "address",
          "name": "from",
          "type": "address"
        },
        {
          "indexed": true,
          "internalType": "address",
          "name": "to",
          "type": "address"
        },
        {
          "indexed": false,
          "internalType": "uint256",
          "name": "id",
          "type": "uint256"
        },
        {
          "indexed": false,
          "internalType": "uint256",
          "name": "value",
          "type": "uint256"
        }
      ],
      "name": "TransferSingle",
      "type": "event"
    },
    {
      "anonymous": false,
      "inputs": [
        {
          "indexed": true,
          "internalType": "address",
          "name": "operator",
          "type": "address"
        },
        {
          "indexed": true,
          "internalType": "address",
          "name": "from",
          "type": "address"
        },
        {
          "indexed": true,
          "internalType": "address",
          "name": "to",
          "type": "address"
        },
        {
          "indexed": false,
          "internalType": "uint256",
          "name": "id",
          "type": "uint256"
        },
        {
          "indexed": false,
          "internalType": "uint256",
          "name": "value",
          "type": "uint256"
        }
      ],
      "name": "TransferVoucher",
      "type": "event"
    },
    {
      "anonymous": false,
      "inputs": [
        {
          "indexed": false,
          "internalType": "string",
          "name": "value",
          "type": "string"
        },
        {
          "indexed": true,
          "internalType": "uint256",
          "name": "id",
          "type": "uint256"
        }
      ],
      "name": "URI",
      "type": "event"
    },
    {
      "inputs": [
        {
          "internalType": "uint256",
          "name": "_date",
          "type": "uint256"
        }
      ],
      "name": "_isExpire",
      "outputs": [
        {
          "internalType": "bool",
          "name": "",
          "type": "bool"
        }
      ],
      "stateMutability": "view",
      "type": "function"
    },
    {
      "inputs": [
        {
          "internalType": "uint256",
          "name": "maxSupply",
          "type": "uint256"
        },
        {
          "internalType": "uint256",
          "name": "expirationDate",
          "type": "uint256"
        }
      ],
      "name": "addDeal",
      "outputs": [],
      "stateMutability": "nonpayable",
      "type": "function"
    },
    {
      "inputs": [
        {
          "internalType": "address",
          "name": "account",
          "type": "address"
        },
        {
          "internalType": "uint256",
          "name": "id",
          "type": "uint256"
        }
      ],
      "name": "balanceOf",
      "outputs": [
        {
          "internalType": "uint256",
          "name": "",
          "type": "uint256"
        }
      ],
      "stateMutability": "view",
      "type": "function"
    },
    {
      "inputs": [
        {
          "internalType": "address[]",
          "name": "accounts",
          "type": "address[]"
        },
        {
          "internalType": "uint256[]",
          "name": "ids",
          "type": "uint256[]"
        }
      ],
      "name": "balanceOfBatch",
      "outputs": [
        {
          "internalType": "uint256[]",
          "name": "",
          "type": "uint256[]"
        }
      ],
      "stateMutability": "view",
      "type": "function"
    },
    {
      "inputs": [
        {
          "internalType": "uint256",
          "name": "",
          "type": "uint256"
        }
      ],
      "name": "deals",
      "outputs": [
        {
          "internalType": "uint256",
          "name": "id",
          "type": "uint256"
        },
        {
          "internalType": "uint256",
          "name": "maxSupply",
          "type": "uint256"
        },
        {
          "internalType": "uint256",
          "name": "totalSupply",
          "type": "uint256"
        },
        {
          "internalType": "uint256",
          "name": "expirationDate",
          "type": "uint256"
        }
      ],
      "stateMutability": "view",
      "type": "function"
    },
    {
      "inputs": [
        {
          "internalType": "address payable",
          "name": "_merchant",
          "type": "address"
        },
        {
          "internalType": "string",
          "name": "baseUri",
          "type": "string"
        }
      ],
      "name": "initialize",
      "outputs": [],
      "stateMutability": "nonpayable",
      "type": "function"
    },
    {
      "inputs": [
        {
          "internalType": "address",
          "name": "account",
          "type": "address"
        },
        {
          "internalType": "address",
          "name": "operator",
          "type": "address"
        }
      ],
      "name": "isApprovedForAll",
      "outputs": [
        {
          "internalType": "bool",
          "name": "",
          "type": "bool"
        }
      ],
      "stateMutability": "view",
      "type": "function"
    },
    {
      "inputs": [
        {
          "internalType": "address",
          "name": "to",
          "type": "address"
        },
        {
          "internalType": "uint256",
          "name": "dealId",
          "type": "uint256"
        },
        {
          "internalType": "uint256",
          "name": "quantity",
          "type": "uint256"
        },
        {
          "internalType": "bytes",
          "name": "data",
          "type": "bytes"
        }
      ],
      "name": "issueVoucher",
      "outputs": [],
      "stateMutability": "nonpayable",
      "type": "function"
    },
    {
      "inputs": [],
      "name": "merchant",
      "outputs": [
        {
          "internalType": "address payable",
          "name": "",
          "type": "address"
        }
      ],
      "stateMutability": "view",
      "type": "function"
    },
    {
      "inputs": [
        {
          "internalType": "uint256",
          "name": "id",
          "type": "uint256"
        },
        {
          "internalType": "uint256",
          "name": "quantity",
          "type": "uint256"
        }
      ],
      "name": "redeem",
      "outputs": [],
      "stateMutability": "nonpayable",
      "type": "function"
    },
    {
      "inputs": [
        {
          "internalType": "address",
          "name": "from",
          "type": "address"
        },
        {
          "internalType": "address",
          "name": "to",
          "type": "address"
        },
        {
          "internalType": "uint256[]",
          "name": "ids",
          "type": "uint256[]"
        },
        {
          "internalType": "uint256[]",
          "name": "amounts",
          "type": "uint256[]"
        },
        {
          "internalType": "bytes",
          "name": "data",
          "type": "bytes"
        }
      ],
      "name": "safeBatchTransferFrom",
      "outputs": [],
      "stateMutability": "nonpayable",
      "type": "function"
    },
    {
      "inputs": [
        {
          "internalType": "address",
          "name": "from",
          "type": "address"
        },
        {
          "internalType": "address",
          "name": "to",
          "type": "address"
        },
        {
          "internalType": "uint256",
          "name": "id",
          "type": "uint256"
        },
        {
          "internalType": "uint256",
          "name": "amount",
          "type": "uint256"
        },
        {
          "internalType": "bytes",
          "name": "data",
          "type": "bytes"
        }
      ],
      "name": "safeTransferFrom",
      "outputs": [],
      "stateMutability": "nonpayable",
      "type": "function"
    },
    {
      "inputs": [
        {
          "internalType": "address",
          "name": "operator",
          "type": "address"
        },
        {
          "internalType": "bool",
          "name": "approved",
          "type": "bool"
        }
      ],
      "name": "setApprovalForAll",
      "outputs": [],
      "stateMutability": "nonpayable",
      "type": "function"
    },
    {
      "inputs": [
        {
          "internalType": "bytes4",
          "name": "interfaceId",
          "type": "bytes4"
        }
      ],
      "name": "supportsInterface",
      "outputs": [
        {
          "internalType": "bool",
          "name": "",
          "type": "bool"
        }
      ],
      "stateMutability": "view",
      "type": "function"
    },
    {
      "inputs": [
        {
          "internalType": "uint256",
          "name": "",
          "type": "uint256"
        }
      ],
      "name": "uri",
      "outputs": [
        {
          "internalType": "string",
          "name": "",
          "type": "string"
        }
      ],
      "stateMutability": "view",
      "type": "function"
    }
  ],
  "bytecode": "0x608060405234801561001057600080fd5b50611c9e806100206000396000f3fe608060405234801561001057600080fd5b50600436106100f45760003560e01c8063565c706111610097578063e985e9c511610066578063e985e9c514610263578063f242432a1461029f578063f399e22e146102b2578063fa59f0ba146102c557600080fd5b8063565c7061146101ff5780637cbc237314610212578063a22cb46514610225578063a5ff76511461023857600080fd5b80630e89341c116100d35780630e89341c146101975780632eb2c2d6146101b75780633cd9262a146101cc5780634e1273f4146101df57600080fd5b8062fdd58e146100f957806301ffc9a71461011f57806303988f8414610142575b600080fd5b61010c610107366004611221565b6102d8565b6040519081526020015b60405180910390f35b61013261012d366004611263565b610373565b6040519015158152602001610116565b610177610150366004611287565b60996020526000908152604090208054600182015460028301546003909301549192909184565b604080519485526020850193909352918301526060820152608001610116565b6101aa6101a5366004611287565b6103c3565b60405161011691906112e6565b6101ca6101c536600461144f565b610457565b005b6101ca6101da3660046114fd565b6104a3565b6101f26101ed366004611560565b61058d565b6040516101169190611668565b6101ca61020d36600461167b565b6106b7565b6101ca61022036600461167b565b61078d565b6101ca61023336600461169d565b610809565b60985461024b906001600160a01b031681565b6040516001600160a01b039091168152602001610116565b6101326102713660046116db565b6001600160a01b03918216600090815260666020908152604080832093909416825291909152205460ff1690565b6101ca6102ad366004611709565b610818565b6101ca6102c0366004611772565b61085d565b6101326102d3366004611287565b61098b565b60006001600160a01b0383166103485760405162461bcd60e51b815260206004820152602a60248201527f455243313135353a2061646472657373207a65726f206973206e6f742061207660448201526930b634b21037bbb732b960b11b60648201526084015b60405180910390fd5b5060008181526065602090815260408083206001600160a01b03861684529091529020545b92915050565b60006001600160e01b03198216636cdb3d1360e11b14806103a457506001600160e01b031982166303a24d0760e21b145b8061036d57506301ffc9a760e01b6001600160e01b031983161461036d565b6060606780546103d2906117cc565b80601f01602080910402602001604051908101604052809291908181526020018280546103fe906117cc565b801561044b5780601f106104205761010080835404028352916020019161044b565b820191906000526020600020905b81548152906001019060200180831161042e57829003601f168201915b50505050509050919050565b6001600160a01b03851633148061047357506104738533610271565b61048f5760405162461bcd60e51b815260040161033f90611806565b61049c85858585856109a5565b5050505050565b60006104ae84610b8b565b905080600101548382600201546104c5919061186a565b11156104e75760405163f9f8491560e01b81526004810185905260240161033f565b6104f4816003015461098b565b156105155760405163121de49760e21b81526004810185905260240161033f565b82816002016000828254610529919061186a565b9091555050604080518581526020810185905233916001600160a01b0388169160009184917f87af0cac4bc7cf825e0a947a5ab302b8140bb1955ded177cbb4c722035af2845910160405180910390a461058586868686610bbd565b505050505050565b606081518351146105f25760405162461bcd60e51b815260206004820152602960248201527f455243313135353a206163636f756e747320616e6420696473206c656e677468604482015268040dad2e6dac2e8c6d60bb1b606482015260840161033f565b6000835167ffffffffffffffff81111561060e5761060e6112f9565b604051908082528060200260200182016040528015610637578160200160208202803683370190505b50905060005b84518110156106af5761068285828151811061065b5761065b61187d565b60200260200101518583815181106106755761067561187d565b60200260200101516102d8565b8282815181106106945761069461187d565b60209081029190910101526106a881611893565b905061063d565b509392505050565b6098546001600160a01b0316336001600160a01b0316146106eb5760405163ea8e4eb560e01b815260040160405180910390fd5b6106f9609780546001019055565b600061070460975490565b604080516080810182528281526020808201878152600083850181815260608501898152878352609985529186902085518155925160018401555160028301555160039091015582518781529081018690529293509183917ffa0cbbf100773b4790a5f764fc669cc22293542c80f84f5569187a708f1d8ef0910160405180910390a250505050565b609854604080518481526020810184905233926001600160a01b031691839182917f87af0cac4bc7cf825e0a947a5ab302b8140bb1955ded177cbb4c722035af2845910160405180910390a4610804336098546040805160208101909152600081526001600160a01b039091169086908690610818565b505050565b610814338383610ce2565b5050565b6001600160a01b03851633148061083457506108348533610271565b6108505760405162461bcd60e51b815260040161033f90611806565b61049c8585858585610dc2565b600054610100900460ff161580801561087d5750600054600160ff909116105b806108975750303b158015610897575060005460ff166001145b6108fa5760405162461bcd60e51b815260206004820152602e60248201527f496e697469616c697a61626c653a20636f6e747261637420697320616c72656160448201526d191e481a5b9a5d1a585b1a5e995960921b606482015260840161033f565b6000805460ff19166001179055801561091d576000805461ff0019166101001790555b609880546001600160a01b0319166001600160a01b03851617905561094182610efe565b8015610804576000805461ff0019169055604051600181527f7f26b83ff96e1f2b6a682f133852f6798a09c465da95921460cefb38474024989060200160405180910390a1505050565b60008142101561099d57506000919050565b506001919050565b8151835114610a075760405162461bcd60e51b815260206004820152602860248201527f455243313135353a2069647320616e6420616d6f756e7473206c656e677468206044820152670dad2e6dac2e8c6d60c31b606482015260840161033f565b6001600160a01b038416610a2d5760405162461bcd60e51b815260040161033f906118ac565b33610a3c818787878787610f31565b60005b8451811015610b25576000858281518110610a5c57610a5c61187d565b602002602001015190506000858381518110610a7a57610a7a61187d565b60209081029190910181015160008481526065835260408082206001600160a01b038e168352909352919091205490915081811015610acb5760405162461bcd60e51b815260040161033f906118f1565b60008381526065602090815260408083206001600160a01b038e8116855292528083208585039055908b16825281208054849290610b0a90849061186a565b9250508190555050505080610b1e90611893565b9050610a3f565b50846001600160a01b0316866001600160a01b0316826001600160a01b03167f4a39dc06d4c0dbc64b70af90fd698a233a518aa5d07e595d983b8c0526c8f7fb8787604051610b7592919061193b565b60405180910390a4610585818787878787610f74565b60008181526099602052604081208054820361036d5760405163cb58af1f60e01b81526004810184905260240161033f565b6001600160a01b038416610c1d5760405162461bcd60e51b815260206004820152602160248201527f455243313135353a206d696e7420746f20746865207a65726f206164647265736044820152607360f81b606482015260840161033f565b336000610c29856110cf565b90506000610c36856110cf565b9050610c4783600089858589610f31565b60008681526065602090815260408083206001600160a01b038b16845290915281208054879290610c7990849061186a565b909155505060408051878152602081018790526001600160a01b03808a1692600092918716917fc3d58168c5ae7397731d063d5bbf3d657854427343f4c083240f7aacaa2d0f62910160405180910390a4610cd98360008989898961111a565b50505050505050565b816001600160a01b0316836001600160a01b031603610d555760405162461bcd60e51b815260206004820152602960248201527f455243313135353a2073657474696e6720617070726f76616c20737461747573604482015268103337b91039b2b63360b91b606482015260840161033f565b6001600160a01b03838116600081815260666020908152604080832094871680845294825291829020805460ff191686151590811790915591519182527f17307eab39ab6107e8899845ad3d59bd9653f200f220920489ca2b5937696c31910160405180910390a3505050565b6001600160a01b038416610de85760405162461bcd60e51b815260040161033f906118ac565b336000610df4856110cf565b90506000610e01856110cf565b9050610e11838989858589610f31565b60008681526065602090815260408083206001600160a01b038c16845290915290205485811015610e545760405162461bcd60e51b815260040161033f906118f1565b60008781526065602090815260408083206001600160a01b038d8116855292528083208985039055908a16825281208054889290610e9390849061186a565b909155505060408051888152602081018890526001600160a01b03808b16928c821692918816917fc3d58168c5ae7397731d063d5bbf3d657854427343f4c083240f7aacaa2d0f62910160405180910390a4610ef3848a8a8a8a8a61111a565b505050505050505050565b600054610100900460ff16610f255760405162461bcd60e51b815260040161033f90611969565b610f2e816111d5565b50565b6098546001600160a01b038681169116148015610f5657506001600160a01b03841615155b156105855760405163ea8e4eb560e01b815260040160405180910390fd5b6001600160a01b0384163b156105855760405163bc197c8160e01b81526001600160a01b0385169063bc197c8190610fb890899089908890889088906004016119b4565b6020604051808303816000875af1925050508015610ff3575060408051601f3d908101601f19168201909252610ff091810190611a12565b60015b61109f57610fff611a2f565b806308c379a0036110385750611013611a4b565b8061101e575061103a565b8060405162461bcd60e51b815260040161033f91906112e6565b505b60405162461bcd60e51b815260206004820152603460248201527f455243313135353a207472616e7366657220746f206e6f6e2d455243313135356044820152732932b1b2b4bb32b91034b6b83632b6b2b73a32b960611b606482015260840161033f565b6001600160e01b0319811663bc197c8160e01b14610cd95760405162461bcd60e51b815260040161033f90611ad5565b604080516001808252818301909252606091600091906020808301908036833701905050905082816000815181106111095761110961187d565b602090810291909101015292915050565b6001600160a01b0384163b156105855760405163f23a6e6160e01b81526001600160a01b0385169063f23a6e619061115e9089908990889088908890600401611b1d565b6020604051808303816000875af1925050508015611199575060408051601f3d908101601f1916820190925261119691810190611a12565b60015b6111a557610fff611a2f565b6001600160e01b0319811663f23a6e6160e01b14610cd95760405162461bcd60e51b815260040161033f90611ad5565b600054610100900460ff166111fc5760405162461bcd60e51b815260040161033f90611969565b610f2e8160676108148282611ba8565b6001600160a01b0381168114610f2e57600080fd5b6000806040838503121561123457600080fd5b823561123f8161120c565b946020939093013593505050565b6001600160e01b031981168114610f2e57600080fd5b60006020828403121561127557600080fd5b81356112808161124d565b9392505050565b60006020828403121561129957600080fd5b5035919050565b6000815180845260005b818110156112c6576020818501810151868301820152016112aa565b506000602082860101526020601f19601f83011685010191505092915050565b60208152600061128060208301846112a0565b634e487b7160e01b600052604160045260246000fd5b601f8201601f1916810167ffffffffffffffff81118282101715611335576113356112f9565b6040525050565b600067ffffffffffffffff821115611356576113566112f9565b5060051b60200190565b600082601f83011261137157600080fd5b8135602061137e8261133c565b60405161138b828261130f565b83815260059390931b85018201928281019150868411156113ab57600080fd5b8286015b848110156113c657803583529183019183016113af565b509695505050505050565b600067ffffffffffffffff8311156113eb576113eb6112f9565b604051611402601f8501601f19166020018261130f565b80915083815284848401111561141757600080fd5b83836020830137600060208583010152509392505050565b600082601f83011261144057600080fd5b611280838335602085016113d1565b600080600080600060a0868803121561146757600080fd5b85356114728161120c565b945060208601356114828161120c565b9350604086013567ffffffffffffffff8082111561149f57600080fd5b6114ab89838a01611360565b945060608801359150808211156114c157600080fd5b6114cd89838a01611360565b935060808801359150808211156114e357600080fd5b506114f08882890161142f565b9150509295509295909350565b6000806000806080858703121561151357600080fd5b843561151e8161120c565b93506020850135925060408501359150606085013567ffffffffffffffff81111561154857600080fd5b6115548782880161142f565b91505092959194509250565b6000806040838503121561157357600080fd5b823567ffffffffffffffff8082111561158b57600080fd5b818501915085601f83011261159f57600080fd5b813560206115ac8261133c565b6040516115b9828261130f565b83815260059390931b85018201928281019150898411156115d957600080fd5b948201945b838610156116005785356115f18161120c565b825294820194908201906115de565b9650508601359250508082111561161657600080fd5b5061162385828601611360565b9150509250929050565b600081518084526020808501945080840160005b8381101561165d57815187529582019590820190600101611641565b509495945050505050565b602081526000611280602083018461162d565b6000806040838503121561168e57600080fd5b50508035926020909101359150565b600080604083850312156116b057600080fd5b82356116bb8161120c565b9150602083013580151581146116d057600080fd5b809150509250929050565b600080604083850312156116ee57600080fd5b82356116f98161120c565b915060208301356116d08161120c565b600080600080600060a0868803121561172157600080fd5b853561172c8161120c565b9450602086013561173c8161120c565b93506040860135925060608601359150608086013567ffffffffffffffff81111561176657600080fd5b6114f08882890161142f565b6000806040838503121561178557600080fd5b82356117908161120c565b9150602083013567ffffffffffffffff8111156117ac57600080fd5b8301601f810185136117bd57600080fd5b611623858235602084016113d1565b600181811c908216806117e057607f821691505b60208210810361180057634e487b7160e01b600052602260045260246000fd5b50919050565b6020808252602e908201527f455243313135353a2063616c6c6572206973206e6f7420746f6b656e206f776e60408201526d195c881bdc88185c1c1c9bdd995960921b606082015260800190565b634e487b7160e01b600052601160045260246000fd5b8082018082111561036d5761036d611854565b634e487b7160e01b600052603260045260246000fd5b6000600182016118a5576118a5611854565b5060010190565b60208082526025908201527f455243313135353a207472616e7366657220746f20746865207a65726f206164604082015264647265737360d81b606082015260800190565b6020808252602a908201527f455243313135353a20696e73756666696369656e742062616c616e636520666f60408201526939103a3930b739b332b960b11b606082015260800190565b60408152600061194e604083018561162d565b8281036020840152611960818561162d565b95945050505050565b6020808252602b908201527f496e697469616c697a61626c653a20636f6e7472616374206973206e6f74206960408201526a6e697469616c697a696e6760a81b606082015260800190565b6001600160a01b0386811682528516602082015260a0604082018190526000906119e09083018661162d565b82810360608401526119f2818661162d565b90508281036080840152611a0681856112a0565b98975050505050505050565b600060208284031215611a2457600080fd5b81516112808161124d565b600060033d1115611a485760046000803e5060005160e01c5b90565b600060443d1015611a595790565b6040516003193d81016004833e81513d67ffffffffffffffff8160248401118184111715611a8957505050505090565b8285019150815181811115611aa15750505050505090565b843d8701016020828501011115611abb5750505050505090565b611aca6020828601018761130f565b509095945050505050565b60208082526028908201527f455243313135353a204552433131353552656365697665722072656a656374656040820152676420746f6b656e7360c01b606082015260800190565b6001600160a01b03868116825285166020820152604081018490526060810183905260a060808201819052600090611b57908301846112a0565b979650505050505050565b601f82111561080457600081815260208120601f850160051c81016020861015611b895750805b601f850160051c820191505b8181101561058557828155600101611b95565b815167ffffffffffffffff811115611bc257611bc26112f9565b611bd681611bd084546117cc565b84611b62565b602080601f831160018114611c0b5760008415611bf35750858301515b600019600386901b1c1916600185901b178555610585565b600085815260208120601f198616915b82811015611c3a57888601518255948401946001909101908401611c1b565b5085821015611c585787850151600019600388901b60f8161c191681555b5050505050600190811b0190555056fea26469706673582212204da9f30b4c41e4055b0d601a48d1617457425b9efacefe55e8688d58b583b73064736f6c63430008110033",
  "linkReferences": {},
  "deployedLinkReferences": {}
}