{
  "_format": "hh-sol-artifact-1",
  "contractName": "DealsFactory",
  "sourceName": "contracts/DealsFactory.sol",
  "abi": [
    {
      "inputs": [
        {
          "internalType": "address",
          "name": "_implementation",
          "type": "address"
        }
      ],
      "stateMutability": "nonpayable",
      "type": "constructor"
    },
    {
      "anonymous": false,
      "inputs": [
        {
          "indexed": true,
          "internalType": "address",
          "name": "contractAddress",
          "type": "address"
        },
        {
          "indexed": true,
          "internalType": "address",
          "name": "merchant",
          "type": "address"
        }
      ],
      "name": "NewDealsContract",
      "type": "event"
    },
    {
      "anonymous": false,
      "inputs": [
        {
          "indexed": true,
          "internalType": "bytes32",
          "name": "role",
          "type": "bytes32"
        },
        {
          "indexed": true,
          "internalType": "bytes32",
          "name": "previousAdminRole",
          "type": "bytes32"
        },
        {
          "indexed": true,
          "internalType": "bytes32",
          "name": "newAdminRole",
          "type": "bytes32"
        }
      ],
      "name": "RoleAdminChanged",
      "type": "event"
    },
    {
      "anonymous": false,
      "inputs": [
        {
          "indexed": true,
          "internalType": "bytes32",
          "name": "role",
          "type": "bytes32"
        },
        {
          "indexed": true,
          "internalType": "address",
          "name": "account",
          "type": "address"
        },
        {
          "indexed": true,
          "internalType": "address",
          "name": "sender",
          "type": "address"
        }
      ],
      "name": "RoleGranted",
      "type": "event"
    },
    {
      "anonymous": false,
      "inputs": [
        {
          "indexed": true,
          "internalType": "bytes32",
          "name": "role",
          "type": "bytes32"
        },
        {
          "indexed": true,
          "internalType": "address",
          "name": "account",
          "type": "address"
        },
        {
          "indexed": true,
          "internalType": "address",
          "name": "sender",
          "type": "address"
        }
      ],
      "name": "RoleRevoked",
      "type": "event"
    },
    {
      "inputs": [],
      "name": "DEFAULT_ADMIN_ROLE",
      "outputs": [
        {
          "internalType": "bytes32",
          "name": "",
          "type": "bytes32"
        }
      ],
      "stateMutability": "view",
      "type": "function"
    },
    {
      "inputs": [],
      "name": "MANAGER_ROLE",
      "outputs": [
        {
          "internalType": "bytes32",
          "name": "",
          "type": "bytes32"
        }
      ],
      "stateMutability": "view",
      "type": "function"
    },
    {
      "inputs": [],
      "name": "clonable",
      "outputs": [
        {
          "internalType": "address",
          "name": "",
          "type": "address"
        }
      ],
      "stateMutability": "view",
      "type": "function"
    },
    {
      "inputs": [
        {
          "internalType": "address payable",
          "name": "merchant",
          "type": "address"
        },
        {
          "internalType": "string",
          "name": "uri",
          "type": "string"
        }
      ],
      "name": "createDealsContract",
      "outputs": [
        {
          "internalType": "address",
          "name": "instance",
          "type": "address"
        }
      ],
      "stateMutability": "nonpayable",
      "type": "function"
    },
    {
      "inputs": [
        {
          "internalType": "bytes32",
          "name": "role",
          "type": "bytes32"
        }
      ],
      "name": "getRoleAdmin",
      "outputs": [
        {
          "internalType": "bytes32",
          "name": "",
          "type": "bytes32"
        }
      ],
      "stateMutability": "view",
      "type": "function"
    },
    {
      "inputs": [
        {
          "internalType": "bytes32",
          "name": "role",
          "type": "bytes32"
        },
        {
          "internalType": "address",
          "name": "account",
          "type": "address"
        }
      ],
      "name": "grantRole",
      "outputs": [],
      "stateMutability": "nonpayable",
      "type": "function"
    },
    {
      "inputs": [
        {
          "internalType": "bytes32",
          "name": "role",
          "type": "bytes32"
        },
        {
          "internalType": "address",
          "name": "account",
          "type": "address"
        }
      ],
      "name": "hasRole",
      "outputs": [
        {
          "internalType": "bool",
          "name": "",
          "type": "bool"
        }
      ],
      "stateMutability": "view",
      "type": "function"
    },
    {
      "inputs": [
        {
          "internalType": "bytes32",
          "name": "role",
          "type": "bytes32"
        },
        {
          "internalType": "address",
          "name": "account",
          "type": "address"
        }
      ],
      "name": "renounceRole",
      "outputs": [],
      "stateMutability": "nonpayable",
      "type": "function"
    },
    {
      "inputs": [
        {
          "internalType": "bytes32",
          "name": "role",
          "type": "bytes32"
        },
        {
          "internalType": "address",
          "name": "account",
          "type": "address"
        }
      ],
      "name": "revokeRole",
      "outputs": [],
      "stateMutability": "nonpayable",
      "type": "function"
    },
    {
      "inputs": [
        {
          "internalType": "bytes4",
          "name": "interfaceId",
          "type": "bytes4"
        }
      ],
      "name": "supportsInterface",
      "outputs": [
        {
          "internalType": "bool",
          "name": "",
          "type": "bool"
        }
      ],
      "stateMutability": "view",
      "type": "function"
    }
  ],
  "bytecode": "0x608060405234801561001057600080fd5b50604051610be7380380610be783398101604081905261002f9161011d565b6100597faf290d8680820aad922855f39b306097b20e28774d6c1ad35a20325630c3a02c3361007e565b600180546001600160a01b0319166001600160a01b039290921691909117905561014d565b6000828152602081815260408083206001600160a01b038516845290915290205460ff16610119576000828152602081815260408083206001600160a01b03851684529091529020805460ff191660011790556100d83390565b6001600160a01b0316816001600160a01b0316837f2f8788117e7eff1d82e926ec794901d17c78024a50270940304540a733656f0d60405160405180910390a45b5050565b60006020828403121561012f57600080fd5b81516001600160a01b038116811461014657600080fd5b9392505050565b610a8b8061015c6000396000f3fe608060405234801561001057600080fd5b506004361061009e5760003560e01c806391d148541161006657806391d148541461014f5780639473b31214610162578063a217fddf14610175578063d547741f1461017d578063ec87621c1461019057600080fd5b806301ffc9a7146100a3578063248a9ca3146100cb5780632f2ff15d146100fc57806336568abe14610111578063380ed33a14610124575b600080fd5b6100b66100b1366004610782565b6101b7565b60405190151581526020015b60405180910390f35b6100ee6100d93660046107ac565b60009081526020819052604090206001015490565b6040519081526020016100c2565b61010f61010a3660046107da565b6101ee565b005b61010f61011f3660046107da565b610218565b610137610132366004610820565b61029b565b6040516001600160a01b0390911681526020016100c2565b6100b661015d3660046107da565b610396565b600154610137906001600160a01b031681565b6100ee600081565b61010f61018b3660046107da565b6103bf565b6100ee7faf290d8680820aad922855f39b306097b20e28774d6c1ad35a20325630c3a02c81565b60006001600160e01b03198216637965db0b60e01b14806101e857506301ffc9a760e01b6001600160e01b03198316145b92915050565b600082815260208190526040902060010154610209816103e4565b61021383836103f1565b505050565b6001600160a01b038116331461028d5760405162461bcd60e51b815260206004820152602f60248201527f416363657373436f6e74726f6c3a2063616e206f6e6c792072656e6f756e636560448201526e103937b632b9903337b91039b2b63360891b60648201526084015b60405180910390fd5b6102978282610475565b5050565b60007faf290d8680820aad922855f39b306097b20e28774d6c1ad35a20325630c3a02c6102c7816103e4565b6001546102dc906001600160a01b03166104da565b6040516379ccf11760e11b81529092506001600160a01b0383169063f399e22e9061030d9087908790600401610934565b600060405180830381600087803b15801561032757600080fd5b505af115801561033b573d6000803e3d6000fd5b5050506001600160a01b03808416600081815260026020526040808220805460ff1916600117905551928816935090917f6a0e186dc8a30d015bd929188181b84c296db9cb4c9fe8704b07de2361b9a79a9190a35092915050565b6000918252602082815260408084206001600160a01b0393909316845291905290205460ff1690565b6000828152602081905260409020600101546103da816103e4565b6102138383610475565b6103ee8133610574565b50565b6103fb8282610396565b610297576000828152602081815260408083206001600160a01b03851684529091529020805460ff191660011790556104313390565b6001600160a01b0316816001600160a01b0316837f2f8788117e7eff1d82e926ec794901d17c78024a50270940304540a733656f0d60405160405180910390a45050565b61047f8282610396565b15610297576000828152602081815260408083206001600160a01b0385168085529252808320805460ff1916905551339285917ff6391f5c32d9c69d2a47ea670b442974b53935d1edc7fd64eb21e047a839171b9190a45050565b6000763d602d80600a3d3981f3363d3d373d3d3d363d730000008260601b60e81c176000526e5af43d82803e903d91602b57fd5bf38260781b17602052603760096000f090506001600160a01b03811661056f5760405162461bcd60e51b8152602060048201526016602482015275115490cc4c4d8dce8818dc99585d194819985a5b195960521b6044820152606401610284565b919050565b61057e8282610396565b6102975761058b816105cd565b6105968360206105df565b6040516020016105a7929190610960565b60408051601f198184030181529082905262461bcd60e51b8252610284916004016109d5565b60606101e86001600160a01b03831660145b606060006105ee8360026109fe565b6105f9906002610a15565b67ffffffffffffffff8111156106115761061161080a565b6040519080825280601f01601f19166020018201604052801561063b576020820181803683370190505b509050600360fc1b8160008151811061065657610656610a28565b60200101906001600160f81b031916908160001a905350600f60fb1b8160018151811061068557610685610a28565b60200101906001600160f81b031916908160001a90535060006106a98460026109fe565b6106b4906001610a15565b90505b600181111561072c576f181899199a1a9b1b9c1cb0b131b232b360811b85600f16601081106106e8576106e8610a28565b1a60f81b8282815181106106fe576106fe610a28565b60200101906001600160f81b031916908160001a90535060049490941c9361072581610a3e565b90506106b7565b50831561077b5760405162461bcd60e51b815260206004820181905260248201527f537472696e67733a20686578206c656e67746820696e73756666696369656e746044820152606401610284565b9392505050565b60006020828403121561079457600080fd5b81356001600160e01b03198116811461077b57600080fd5b6000602082840312156107be57600080fd5b5035919050565b6001600160a01b03811681146103ee57600080fd5b600080604083850312156107ed57600080fd5b8235915060208301356107ff816107c5565b809150509250929050565b634e487b7160e01b600052604160045260246000fd5b6000806040838503121561083357600080fd5b823561083e816107c5565b9150602083013567ffffffffffffffff8082111561085b57600080fd5b818501915085601f83011261086f57600080fd5b8135818111156108815761088161080a565b604051601f8201601f19908116603f011681019083821181831017156108a9576108a961080a565b816040528281528860208487010111156108c257600080fd5b8260208601602083013760006020848301015280955050505050509250929050565b60005b838110156108ff5781810151838201526020016108e7565b50506000910152565b600081518084526109208160208601602086016108e4565b601f01601f19169290920160200192915050565b6001600160a01b038316815260406020820181905260009061095890830184610908565b949350505050565b7f416363657373436f6e74726f6c3a206163636f756e74200000000000000000008152600083516109988160178501602088016108e4565b7001034b99036b4b9b9b4b733903937b6329607d1b60179184019182015283516109c98160288401602088016108e4565b01602801949350505050565b60208152600061077b6020830184610908565b634e487b7160e01b600052601160045260246000fd5b80820281158282048414176101e8576101e86109e8565b808201808211156101e8576101e86109e8565b634e487b7160e01b600052603260045260246000fd5b600081610a4d57610a4d6109e8565b50600019019056fea26469706673582212200ae189ee87aaf068160f4b19b7da8515b77c9d2e119820db84957bcad50a4e6a64736f6c63430008110033",
  "linkReferences": {},
  "deployedLinkReferences": {}
}